:020000040800F2
:1000000000500020F917000891040008930400082C
:1000100095040008970400089904000800000000F7
:100020000000000000000000000000009B04000829
:100030009D040008000000009F040008A1040008BF
:10004000411800084118000841180008411800082C
:10005000411800084118000841180008411800081C
:10006000411800084118000841180008411800080C
:1000700041180008411800084118000841180008FC
:1000800041180008411800084118000841180008EC
:1000900041180008411800084118000841180008DC
:1000A00041180008411800084118000841180008CC
:1000B00041180008411800084118000841180008BC
:1000C00041180008411800084118000841180008AC
:1000D000411800084118000841180008411800089C
:1000E00041180008411800084118000800000000ED
:1000F0000000000000000000000000000000000000
:0C01000000000000000000005FF808F1A3
:10010C00034613F8012B002AFBD1181A013870474B
:10011C000348044B834202D0034B03B1184770478A
:10012C005C0000205C000020000000000548064B2D
:10013C001B1AD90F01EBA301491002D0034B03B1D9
:10014C00184770475C0000205C0000200000000095
:10015C0010B5064C237843B9FFF7DAFF044B13B103
:10016C000448AFF300800123237010BD5C00002015
:10017C0000000000B421000808B5054B1BB105496F
:10018C000548AFF30080BDE80840FFF7CFBF00BFC4
:10019C000000000060000020B421000872B6FEE7E9
:1001AC0000B591B02822002106A801F067FB0023BE
:1001BC000193029303930493059302230693012264
:1001CC000A9210220B920D934FF4C0130F9306A8B2
:1001DC0000F072FB78B90F230193022302930023E2
:1001EC00039304930593012101A800F097FD20B916
:1001FC0011B05DF804FBFFF7D1FFFFF7CFFF000054
:10020C0000B583B000F01EFBFFF7CAFF00F046F804
:10021C0000F086F800F0E0F800F068F800238DF8A4
:10022C0007308DF8063009E00DF107010DF10600DD
:10023C0001F0AEFA4FF47A7001F0AFF90949CB68CE
:10024C001A0402F40012DB4303F0200313430B6186
:10025C000DF107010DF1060001F030FA0028E3D092
:10026C00E8E700BF0008014010B54FEA116E50F8E6
:10027C000E3091FAA1FCBCFA8CFC4FEA8C0C0F24CA
:10028C0004FA0CFC23EA0C0391FAA1F1B1FA81F106
:10029C0089008A40134340F80E3010BD00B587B07A
:1002AC0000230193029303930493059303F180437A
:1002BC0003F504339A6942F004029A619B6903F0D6
:1002CC0004030093009B08480222426140F202237F
:1002DC000193012302930392059301A901F012F9F2
:1002EC0007B05DF804FB00BF0008014000B583B007
:1002FC00094B9A6942F004029A619B6903F004036A
:10030C000193019B012242F220010448FFF7ACFF4C
:10031C0003B05DF804FB00BF001002400008014070
:10032C0000B587B0002302930393049305930093C5
:10033C0001931748174A02601F22426083604FF6F0
:10034C00FF72C26003618023836100F067F9A8B972
:10035C004FF48053029302A90D4800F097F980B92D
:10036C000023009301936946094800F00FFA58B92D
:10037C00074800F0E3F807B05DF804FBFFF70EFF49
:10038C00E6E7FFF70BFFEBE7FFF708FFF0E700BF2F
:10039C0078000020000400400268094B9A4200D00B
:1003AC00704782B003F50333DA6942F00202DA6176
:1003BC00DB6903F002030193019B02B0704700BF9D
:1003CC0000040040034B1A6800235362536A8342B3
:1003DC00FCD370477800002008B50A480A4B03602C
:1003EC004FF4E133436000238360C3600361082250
:1003FC0042618361C36100F0A0FF00B908BDFFF743
:10040C00CDFEFBE7C00000200038014010B586B0DF
:10041C00002302930393049305930268174B9A42AB
:10042C0001D006B010BD03F558439A6942F48042DE
:10043C009A619A6902F480420092009A9A6942F099
:10044C0004029A619B6903F004030193019B4FF42E
:10045C00007302930223039303230593084C02A910
:10046C00204600F037FD4FF4806302930023039382
:10047C00049302A9204600F02DFDD2E7003801407C
:10048C0000080140FEE7FEE7FEE7FEE7FEE77047E7
:10049C007047704708B500F0E7F908BD82B00E4B05
:1004AC009A6942F001029A619A6902F00102009283
:1004BC00009ADA6942F08052DA61DB6903F080530A
:1004CC000193019B054A536823F0E06343F00073EA
:1004DC00536002B0704700BF0010024000000140A2
:1004EC0010B4036A046A24F001040462846924F0E1
:1004FC00F00C4CEA021223F00A030B4382610362F4
:10050C0010BC704710B4036A046A24F0100404622F
:10051C00846924F4704C4CEA023223F0A00343EAC1
:10052C0001138261036210BC7047836823F070036F
:10053C000B4343F0070383607047000090F83D3095
:10054C00DBB2012B22D1022380F83D300368114A23
:10055C00934210D0B3F1804F0DD0A2F59432934258
:10056C0009D002F58062934205D01A6842F001026C
:10057C001A60002070479A6802F00702062A07D01A
:10058C001A6842F001021A6000207047012070477F
:10059C0000207047002C014003681F4A90420AD08B
:1005AC00B0F1804F07D0A2F59432904203D002F5FF
:1005BC008062904203D123F070034A681343164AB9
:1005CC0090420AD0B0F1804F07D0A2F594329042FD
:1005DC0003D002F58062904203D123F44073CA68C1
:1005EC00134323F080034A69134303608B68C3628F
:1005FC000B688362084B98420AD00123436103695C
:10060C0013F0010F03D0036923F00103036170475A
:10061C000B690363F1E700BF002C014040B310B538
:10062C00044690F83D30F3B1022384F83D30214666
:10063C0051F8040BFFF7B0FF012384F8463084F81F
:10064C003E3084F83F3084F8403084F8413084F8F0
:10065C00423084F8433084F8443084F8453084F8D0
:10066C003D30002010BD80F83C30FFF795FEDBE7F5
:10067C000120704710B4846824F47F4C42EA0322B2
:10068C000A4342EA0C02826010BC704790F83C307E
:10069C00012B78D010B50446012380F83C3002239E
:1006AC0080F83D300268936823F47F4323F077038E
:1006BC0093600B68602B4CD023D8402B54D011D8AE
:1006CC00202B03D00AD80BB1102B05D1194620686A
:1006DC00FFF72BFF002028E0012026E0302BF5D07F
:1006EC00012022E0502B0AD1CA6849680068FFF744
:1006FC00F7FE50212068FFF718FF002015E00120BD
:10070C0013E0B3F5805F3AD0B3F5005F14D0702BD3
:10071C0037D1CB684A6889680068FFF7ABFF22685D
:10072C00936843F0770393600020012384F83D30F5
:10073C00002384F83C3010BDCB684A688968006897
:10074C00FFF798FF2268936843F48043936000207E
:10075C00EBE7CA6849680068FFF7D4FE602120689F
:10076C00FFF7E3FE0020E0E7CA6849680068FFF77E
:10077C00B7FE40212068FFF7D8FE0020D5E7002007
:10078C00D3E70120D1E702207047000090F83C200D
:10079C00012A2CD010B40346012280F83C200222FE
:1007AC0080F83D2002685068946820F0700C08684E
:1007BC0040EA0C0050601A680E4882420AD0B2F12E
:1007CC00804F07D0A0F59430824203D000F58060B2
:1007DC00824204D124F080044968214391600122B3
:1007EC0083F83D20002083F83C0010BC70470220A9
:1007FC00704700BF002C014010B504460E4B1A7810
:10080C004FF47A73B3FBF2F30C4A1068B0FBF3F0BD
:10081C0000F0C4FC68B90F2C01D901200AE00022B9
:10082C0021464FF0FF3000F0A9FC054B1C60002066
:10083C0000E0012010BD00BF0000002008000020D7
:10084C000400002008B5074A136843F01003136036
:10085C00032000F081FC0F20FFF7CEFFFFF71EFEF8
:10086C00002008BD00200240034A1168034B1B788E
:10087C000B441360704700BF0801002000000020EB
:10088C00014B1868704700BF0801002082B0084B6C
:10089C001B68084AA2FB03235B0A00FB03F30193CA
:1008AC0000BF019B5A1E0192002BF9D102B0704778
:1008BC0008000020D34D6210002800F0F18170B5C3
:1008CC0082B00446036813F0010F2CD0994B5B687F
:1008DC0003F00C03042B1DD0964B5B6803F00C0348
:1008EC00082B12D06368B3F5803F41D0002B55D153
:1008FC0003F1804303F504331A6822F480321A6042
:10090C001A6822F480221A6037E08A4B5B6813F471
:10091C00803FE7D0874B1B6813F4003F03D063681C
:10092C00002B00F0BF81236813F0020F75D0814BB0
:10093C005B6813F00C0F5FD07E4B5B6803F00C030D
:10094C00082B54D02369002B00F08A807A4B0122AB
:10095C001A60FFF795FF0546764B1B6813F0020FE4
:10096C0075D1FFF78DFF401B0228F5D903209EE1BE
:10097C00704A136843F480331360636843B3FFF722
:10098C007FFF05466B4B1B6813F4003FCBD1FFF781
:10099C0077FF401B6428F5D9032088E1B3F5A02F1D
:1009AC0009D0644B1A6822F480321A601A6822F457
:1009BC0080221A60E1E703F18043A3F53C331A6807
:1009CC0042F480221A601A6842F480321A60D4E72A
:1009DC00FFF756FF0546574B1B6813F4003FA2D098
:1009EC00FFF74EFF401B6428F5D903205FE1514B04
:1009FC005B6813F4803FA5D14E4B1B6813F0020FBC
:100A0C0003D02369012B40F04F814A4A136823F02D
:100A1C00F803616943EAC1031360236813F0080FFC
:100A2C0033D0A369002B5CD0434B0122C3F8802444
:100A3C00FFF726FF05463F4B5B6A13F0020F21D1EF
:100A4C00FFF71EFF401B0228F5D903202FE1394A7E
:100A5C00136823F0F803616943EAC1031360DCE710
:100A6C00354B00221A60FFF70BFF0546314B1B6814
:100A7C0013F0020FD1D0FFF703FF401B0228F5D96A
:100A8C00032014E10120FFF701FF236813F0040F8A
:100A9C0000F09680274BDB6913F0805F34D1254B37
:100AAC00DA6942F08052DA61DB6903F0805301931A
:100ABC00019B0125214B1B6813F4807F26D0E36832
:100ACC00012B3DD0002B53D103F1804303F50433AC
:100ADC001A6A22F001021A621A6A22F004021A62DD
:100AEC0033E0154B0022C3F88024FFF7C9FE0546FE
:100AFC00104B5B6A13F0020FC7D0FFF7C1FE401B0F
:100B0C000228F5D90320D2E00025D3E70B4A13685D
:100B1C0043F480731360FFF7B3FE0646074B1B6864
:100B2C0013F4807FCBD1FFF7ABFE801B6428F5D983
:100B3C000320BCE000100240000042420070004064
:100B4C005F4A136A43F001031362E36833B3FFF7A0
:100B5C0097FE06465A4B1B6A13F0020F2FD1FFF774
:100B6C008FFE801B41F288339842F3D903209EE01C
:100B7C00052B09D0524B1A6A22F001021A621A6A2A
:100B8C0022F004021A62E0E74D4B1A6A42F00402AA
:100B9C001A621A6A42F001021A62D6E7FFF770FE77
:100BAC000646474B1B6A13F0020F08D0FFF768FE8E
:100BBC00801B41F288339842F3D9032077E0E5B9E2
:100BCC00E369002B72D03E4A526802F00C02082AEC
:100BDC0056D0022B17D03B4B00221A66FFF750FE63
:100BEC000446374B1B6813F0007F47D0FFF748FED5
:100BFC00001B0228F5D9032059E0314AD36923F0B0
:100C0C008053D361DCE72F4B00221A66FFF738FEC6
:100C1C0005462B4B1B6813F0007F06D0FFF730FE08
:100C2C00401B0228F5D9032041E0236AB3F5803F2D
:100C3C001AD023494B6823F47413226A606A024366
:100C4C0013434B601F4B01221A66FFF719FE044633
:100C5C001B4B1B6813F0007F0ED1FFF711FE001B1E
:100C6C000228F5D9032022E0154A536823F40033F7
:100C7C00A1680B435360DCE7002018E0002016E06D
:100C8C00012B16D00E4B5B6803F48031226A914223
:100C9C0011D103F47013626A93420ED1002006E066
:100CAC0001207047012002E0012000E0002002B08A
:100CBC0070BD0120FBE70120F9E70120F7E700BF39
:100CCC0000100240000042420F4B5B6803F00C0224
:100CDC00082A01D00D487047C3F383420C49885C45
:100CEC0013F4803F0BD0084B5B68C3F34043094AB5
:100CFC00D35C064A02FB00F0B0FBF3F07047064BE6
:100D0C0003FB00F0704700BF0010024000127A0095
:100D1C00D0210008CC21000800093D00002800F07B
:100D2C00A08070B50D460446524B1B6803F00703B8
:100D3C008B420BD24F4A136823F007030B4313600B
:100D4C00136803F007038B4240F08D80236813F087
:100D5C00020F17D013F0040F04D0474A536843F422
:100D6C00E0635360236813F0080F04D0424A5368C1
:100D7C0043F460535360404A536823F0F003A16876
:100D8C000B435360236813F0010F31D06368012BC0
:100D9C0020D0022B25D0384A126812F0020F64D0F2
:100DAC0035494A6822F0030213434B60FFF768FD94
:100DBC000646314B5B6803F00C036268B3EB820FA1
:100DCC0016D0FFF75DFD801B41F288339842F0D9B5
:100DDC00032045E0284A126812F4003FE0D10120BC
:100DEC003EE0254A126812F0007FD9D1012037E08D
:100DFC00204B1B6803F00703AB420AD91D4A13684A
:100E0C0023F007032B431360136803F00703AB4273
:100E1C002DD1236813F0040F06D0174A536823F41E
:100E2C00E063E1680B435360236813F0080F07D0AD
:100E3C00114A536823F46053216943EAC103536098
:100E4C00FFF742FF0C4B5B68C3F303130B4AD35CF5
:100E5C00D8400B4B18600B4B1868FFF7CDFC0020EB
:100E6C0070BD012070470120FAE70120F8E701204E
:100E7C00F6E700BF0020024000100240E821000805
:100E8C000800002004000020014B1868704700BFC8
:100E9C000800002008B5FFF7F7FF044B5B68C3F3AD
:100EAC000223034AD35CD84008BD00BF00100240A7
:100EBC00E021000808B5FFF7E7FF044B5B68C3F3BC
:100ECC00C223034AD35CD84008BD00BF00100240C7
:100EDC00E021000870B582B00024A446A1E07E4D4C
:100EEC00AB4214D00CD8A5F58015AB420FD005F54C
:100EFC007025AB420BD0A5F58015AB4210D106E0A6
:100F0C00764DAB4203D005F58035AB4208D18B68EA
:100F1C00002B50D0012B49D04261082400E0CC6852
:100F2C00BEF1FF0F49D806464FEA8C0233680F25F5
:100F3C00954023EA050304FA02F2134333604B682D
:100F4C0013F0805F6BD0664B9A6942F001029A6194
:100F5C009B6903F001030193019B4FEA9C02951CD2
:100F6C00604B53F825600CF00305AD000F23AB402C
:100F7C0026EA03065C4B984226D003F58063984220
:100F8C0000F08C8003F58063984200F0898003F5B3
:100F9C008063984216D0042317E0CC680434BFE772
:100FAC00CC680834BCE7CC680C34B9E7026108247F
:100FBC00B6E70024B4E70424B2E7061DACF108023E
:100FCC009200B3E7032300E00023AB40334302322B
:100FDC00444D45F822304B6813F4801F62D0434ACD
:100FEC00936843EA0E0393604B6813F4001F5FD0C1
:100FFC003E4AD36843EA0E03D3604B6813F4003FB8
:10100C005CD03A4A536843EA0E0353604B6813F4BE
:10101C00803F59D0354A136843EA0E0313600CF134
:10102C00010C0B6833FA0CF254D0012202FA0CF2C8
:10103C0003EA020E32EA0303F1D14B68122B3FF69E
:10104C004EAF122B3FF66CAF01A555F823F000BF45
:10105C001B0F00082B0F0008AD0F0008BF0F000876
:10106C002D0F00082D0F00082D0F00082D0F000864
:10107C002D0F00082D0F00082D0F00082D0F000854
:10108C002D0F00082D0F00082D0F00082D0F000844
:10109C002D0F0008A70F0008B30F0008012394E7D9
:1010AC00022392E7114A936823EA0E0393609BE7AD
:1010BC000E4AD36823EA0E03D3609EE70B4A5368AB
:1010CC0023EA0E035360A1E7084A136823EA0E03D0
:1010DC001360A4E702B070BD0000221000003110B4
:1010EC0000100240000001400008014000040140D3
:1010FC00002808DB0901C9B200F1604000F561402D
:10110C0080F80013704700F00F000901C9B2014BC1
:10111C001954704714ED00E000B500F00700C0F161
:10112C00070CBCF1040F28BF4FF0040C031D062B59
:10113C000FD9C31E4FF0FF3E0EFA0CF021EA00014E
:10114C0099400EFA03FE22EA0E0241EA02005DF813
:10115C0004FB0023EEE70000074AD36823F4E063A6
:10116C001B041B0C000200F4E060034343F0BF635C
:10117C0043F40033D360704700ED00E010B5044633
:10118C00054BD868C0F30220FFF7C6FF0146204686
:10119C00FFF7AEFF10BD00BF00ED00E00138B0F16D
:1011AC00807F0BD24FF0E0235861054AF02182F882
:1011BC0023100020986107221A61704701207047A4
:1011CC0000ED00E0026802F10C0353E8003F23F449
:1011DC0090730C3242E800310029F3D1026802F11D
:1011EC00140353E8003F23F00103143242E80031AA
:1011FC000029F3D1036B012B05D0202380F842305A
:10120C00002303637047026802F10C0353E8003FAC
:10121C0023F010030C3242E800310029F3D1ECE743
:10122C0010B504460268136923F44053C1680B439C
:10123C00136183680269134342691A430168CB68DE
:10124C0023F4B05323F00C031343CB6002685369AF
:10125C0023F4407381690B4353610268134B9A4228
:10126C0020D0FFF717FE024602EB820202EB82024D
:10127C0063689B00B2FBF3F20D48A0FB02314909F5
:10128C00642303FB11231B013233A0FB03035B0913
:10129C0003F0F00202EB011203F00F032168134478
:1012AC008B6010BDFFF706FE0246DDE700380140FB
:1012BC001F85EB512DE9F04383B005460E461746CA
:1012CC009946DDF828802B681C6836EA04040CBFAC
:1012DC0001240024BC4228D1B8F1FF3FF3D0FFF722
:1012EC00CFFAA0EB0900404523D8B8F1000F22D06B
:1012FC002B68DA6812F0040FE5D0802EE3D0402E74
:10130C00E1D01A6812F0080FDDD0002401941A689D
:10131C0001925B680193019B2846FFF753FF08235A
:10132C006B6485F84040012000E0002003B0BDE86C
:10133C00F0830320FAE70320F8E760B310B5044606
:10134C0090F8413013B3242384F841302268D368D9
:10135C0023F40053D3602046FFF762FF2268136921
:10136C0023F4904313612268536923F02A035361D9
:10137C002268D36843F40053D360002060642023B8
:10138C0084F8413084F84230606310BD80F84030FE
:10139C00FFF73CF8D7E7012070472DE9F04182B008
:1013AC001E4690F84130DBB2202B56D104460D4638
:1013BC009046002955D00AB901204FE00023436420
:1013CC00212380F84130FFF75BFA0746A4F824800C
:1013DC00A4F82680A368B3F5805F02D04FF0000814
:1013EC0014E023692BB34FF000080FE0202384F89E
:1013FC004130032032E038F8023B2268C3F3080383
:10140C005360E28C92B2013A92B2E284E38C9BB2CA
:10141C0093B100963B46002280212046FFF74AFFFD
:10142C000028E3D1002DE6D015F8012B23685A6073
:10143C00E7E7A8460025E9E700963B460022402155
:10144C002046FFF737FF18B9202384F8413005E018
:10145C00202384F84130032000E0022002B0BDE8D4
:10146C00F0810120FAE7704710B54FEA116E50F881
:10147C000E3091FAA1FCBCFA8CFC4FEA8C0C0F24B8
:10148C0004FA0CFC23EA0C0391FAA1F1B1FA81F1F4
:10149C0089008A40134340F80E3010BD10B54FEA56
:1014AC00116E50F80E3091FAA1FCBCFA8CFC4FEA8C
:1014BC008C0C032404FA0CFC23EA0C0391FAA1F122
:1014CC00B1FA81F189008A40134340F80E3010BD07
:1014DC0010B54FEA116E50F80E3091FAA1FCBCFA1F
:1014EC008CFC4FEA8C0C042404FA0CFC23EA0C034D
:1014FC0091FAA1F1B1FA81F189008A40134340F8C5
:10150C000E3010BD2DE9F04180460E460F68C7F332
:10151C000F2797FAA7F4B4FA84F414E0A4F10803A3
:10152C004FF001159D4045F080657368082B17D06E
:10153C00726829464046FFF797FF7368012B1ED04F
:10154C00092B1CD0013437FA04F323D00123A34018
:10155C003B42F7D0072CE1D840F20115A540E4E757
:10156C003269D8F80C102B0A21EA152193FAA3F34F
:10157C00B3FA83F39A400A43C8F80C20D8E7B26850
:10158C0029464046FFF78AFFF26829464046FFF796
:10159C009FFFD7E70020BDE8F08182B04FF0E02339
:1015AC001B690193019BB0F1FF3F00D0013038B1B2
:1015BC004FF0E0231B6913F4803FF8D00138F6E7B5
:1015CC0002B0704710B54FEA116E50F80E3091FA18
:1015DC00A1FCBCFA8CFC4FEA8C0C0F2404FA0CFC1A
:1015EC0023EA0C0391FAA1F1B1FA81F189008A4046
:1015FC00134340F80E3010BD38B50B4C012240F2AD
:10160C0002212046FFF7DEFF022565611220FFF75D
:10161C00C4FF25611420FEF7D5FE082240F20221FA
:10162C002046FFF7CFFF38BD0008014010B5104C25
:10163C00082240F202212046FFF7C4FF2820FEF7C3
:10164C00C1FEA36813F0020F06D00C20084B9B6858
:10165C0013F0020FFAD110BD5020FEF7B3FEA368B1
:10166C0013F0020F01D00020F0E70A20EEE700BFD4
:10167C000008014038B50024254600E00134072C51
:10168C0018DC0D4B9B6813F0020FFAD02820FEF7E4
:10169C0099FE094B9B6813F0020FEFD0C4F10702BF
:1016AC00012393402B43DDB2034B9B6813F0020FD5
:1016BC00FAD1E3E7284638BD000801402DE9F8438C
:1016CC0080460F46FFF798FFFFF7B0FF224B1870CC
:1016DC0030BBFFF7CFFFC6B2FFF7CCFFC4B2FFF7AA
:1016EC00C9FFC5B2FFF7C6FF5FFA80F9FFF7C2FF6B
:1016FC00C0B23319DBB22B44DBB24B44DBB29842A1
:10170C001AD188F800603D70144C012240F202217D
:10171C002046FFF757FF022323610020BDE8F88322
:10172C000E4C012240F202212046FFF74BFF022310
:10173C0023614FF0FF30F1E7002388F800303B7055
:10174C00064C012240F202212046FFF73BFF022308
:10175C0023614FF0FF30E1E70C010020000801404D
:10176C0000B585B00246084901A800F065F801A84B
:10177C00FEF7C6FC4FF0FF3382B201A90348FFF716
:10178C000CFE05B05DF804FBF8210008C000002039
:10179C0030B58FB00C460278114901A800F04CF816
:1017AC0001A8FEF7ADFC0F4D4FF0FF3382B201A93B
:1017BC002846FFF7F2FD22780B4901A800F03CF80F
:1017CC0001A8FEF79DFC4FF0FF3382B201A9284619
:1017DC00FFF7E3FD0120FFF7C3FF0FB030BD00BFE3
:1017EC0000220008C000002010220008FFF73BFE7A
:1017FC000B480C490C4A002302E0D458C450043363
:10180C00C4188C42F9D3094A094C002301E0136037
:10181C000432A242FBD300F039F8FEF7F1FC70471A
:10182C00000000205C000020642200085C00002006
:10183C005C020020FEE700000EB46FF0004110B512
:10184C0000249DB01FAB02900690079104910948AB
:10185C00094953F8042B0591006802A901931B94C4
:10186C0000F08CF9029B1C701DB0BDE8104003B059
:10187C00704700BF0C0000200802FFFF0346024423
:10188C00934200D1704703F8011BF9E770B50026AD
:10189C000C4D0D4C641BA410A64209D100F084FC25
:1018AC0000260A4D0A4C641BA410A64205D170BD3B
:1018BC0055F8043B98470136EEE755F8043B98473A
:1018CC000136F2E75C2200085C2200085C2200086A
:1018DC00602200087047704738B50546002940D093
:1018EC0051F8043C0C1F002BB8BFE41800F0DEF8D4
:1018FC001C4A136833B9636014602846BDE838404D
:10190C0000F0DAB8A34208D9206821188B4201BF35
:10191C0019685B6809182160EDE71A465B680BB122
:10192C00A342FAD911685018A0420BD12068014487
:10193C00501883421160E0D118685B68084410604D
:10194C005360DAE702D90C232B60D6E72068211804
:10195C008B4201BF19685B68091821606360546091
:10196C00CBE738BD5402002070B50F4E0C463168E1
:10197C00054611B900F0A8FB30602146284600F05E
:10198C00A3FB431C03D14FF0FF34204670BDC41C95
:10199C0024F00304A042F8D0211A284600F094FB4E
:1019AC000130F2D1EFE700BF500200202DE9F843DF
:1019BC00CD1C25F0030508350C2D38BF0C25002D4A
:1019CC00064601DBA94204D90C2333600020BDE894
:1019DC00F883DFF8D48000F069F8D8F800301C46A2
:1019EC0044BB29463046FFF7BFFF431C044658D181
:1019FC00D8F800402746002F43D1002C4BD0236849
:101A0C003946304604EB030900F05EFB814542D1B8
:101A1C00216830466D1A2946FFF7A6FF01303AD0EF
:101A2C0023682B442360D8F800305A6862BBC8F88E
:101A3C0000700FE02268521B20D40B2A17D96119B1
:101A4C00A342256018BF5960636808BFC8F800102E
:101A5C0062514B60304600F02FF804F10B00231D4F
:101A6C0020F00700C21A1CBF1B1AA350AFE7626814
:101A7C00A3420CBFC8F800205A60EBE72346646809
:101A8C00AEE73C467F68B6E71A465B68A342FBD1DB
:101A9C0000235360DEE70C233046336000F00CF873
:101AAC0094E70560D6E700BF540200200148FFF719
:101ABC0011BF00BF4C0200200148FFF70CBF00BF54
:101ACC004C0200202DE9F0471F468E688246BE422C
:101ADC000C4690460B682DD8B1F90C2012F4906F7F
:101AEC0026D06569096905EB4505A3EB010905EBF2
:101AFC00D5757B1C4B446D109D4238BF1D4653055C
:101B0C0027D52946FFF752FF064660B34A4621699E
:101B1C0000F0F8FAA38923F4906343F08003A381C7
:101B2C0026614E4426603E466561A5EB0905A5601D
:101B3C00BE4200D93E4632464146206800F0AAFA21
:101B4C000020A3689B1BA360236833442360BDE87B
:101B5C00F0872A4600F0E4FA06460028E0D1504609
:101B6C002169FFF7B9FE0C23CAF80030A3894FF0A6
:101B7C00FF3043F04003A381E9E700002DE9F04F6B
:101B8C0098468B8907461B060D4614469DB010D50A
:101B9C000B6973B94021FFF709FF2860286130B940
:101BAC000C233B604FF0FF301DB0BDE8F08F40239D
:101BBC006B610023099320238DF8293030234FF0DB
:101BCC000109CDF80C80DFF898818DF82A30234676
:101BDC009A4613F8012B0AB1252AF9D1BAEB040B5A
:101BEC000BD05B46224629463846FFF76BFF013087
:101BFC0000F0A780099A5A4409929AF80030002BF9
:101C0C0000F09F8000234FF0FF32CDE905230AF14D
:101C1C00010A049307938DF853301A935446052206
:101C2C0014F8011B4E4800F05FFA049AD8B9D0069C
:101C3C0044BF20238DF85330110744BF2B238DF85C
:101C4C0053309AF800302A2B15D0544600204FF010
:101C5C000A0C079A214611F8013B303B092B4BD952
:101C6C00B0B1079214E0A0EB080309FA03F3134395
:101C7C00A2460493D2E7039B191D1B680391002B0A
:101C8C00BBBF5B4242F0020207930793B8BF0492BA
:101C9C0023782E2B0AD163782A2B32D1039B023462
:101CAC001A1D1B68039243EAE3730593DFF8B4A093
:101CBC0003225046217800F017FA38B14022049BD9
:101CCC00A0EB0A00824013430134049314F8011B67
:101CDC00062225488DF8281000F006FA002836D088
:101CEC00224B1BBB039B073323F0070308330393DF
:101CFC00099B334409936AE70C4601200CFB023222
:101D0C00A8E700234FF00A0C19460134059320462E
:101D1C0010F8012B303A092A03D9002BC6D00591B3
:101D2C00C4E7044601230CFB0121F0E703AB00934D
:101D3C002A4638460E4B04A9AFF30080421C0646D7
:101D4C00D6D1AB895B063FF52DAF09982CE703ABD9
:101D5C0000932A463846064B04A900F07DF8EDE7BF
:101D6C0021220008272200082B2200080000000076
:101D7C00D11A00082DE9F047164698468A680B6977
:101D8C0007469342B8BF1346336091F843200C4684
:101D9C00DDF820900AB1013333602368990642BF05
:101DAC00336802333360256815F0060506D104F15B
:101DBC00190AE36832689B1AAB422BDC94F8433067
:101DCC002268003B18BF0123920630D441463846A6
:101DDC0004F14302C847013023D02368226903F081
:101DEC000603042B14BF002533684FF0000608BF10
:101DFC00E56804F11A0408BFED1A54F8123C08BF48
:101E0C0025EAE5759342C4BF9B1AED18B5421AD169
:101E1C00002008E00123524641463846C8470130AD
:101E2C0003D14FF0FF30BDE8F0870135C1E730201A
:101E3C00E11881F843005A1C94F8451022440233EF
:101E4C0082F84310C2E70123224641463846C84770
:101E5C000130E6D00136D9E72DE9FF470F7E9146D8
:101E6C00782F80460C469A460C9E01F1430207D807
:101E7C00622F0AD8002F00F0D180582F00F0B880C4
:101E8C0004F1420684F842703AE0A7F16303152B83
:101E9C00F6D801A151F823F0FD1E0008111F00080F
:101EAC008D1E00088D1E00088D1E00088D1E00085A
:101EBC00111F00088D1E00088D1E00088D1E0008C5
:101ECC008D1E00080F2000083B1F0008C91F0008CA
:101EDC008D1E00088D1E0008312000088D1E000884
:101EEC003B1F00088D1E00088D1E0008D11F000826
:101EFC0033681A1D1B68326004F1420684F84230C4
:101F0C0001239CE033682068191D3160060601D559
:101F1C001D6803E04506FBD5B3F90050002D03DA2C
:101F2C002D236D4284F843300A23584811E0216870
:101F3C003368080653F8045B02D4490648BFADB2B7
:101F4C006F2F336014BF0A2308235048002184F8F4
:101F5C0043106668002EA66005DB21682E4321F035
:101F6C00040121604BD01646B5FBF3F103FB11576E
:101F7C00C75D06F8017D2F46BB420D46F4D9082BF0
:101F8C000BD12368DF0708D5236961689942DEBF4E
:101F9C00302306F8013C06F1FF36921B22614B46BA
:101FAC0021464046CDF800A003AAFFF7E3FE01301E
:101FBC004AD14FF0FF3004B0BDE8F087236843F0FE
:101FCC00200323607827324884F8457023683168F1
:101FDC001F0651F8045B02D45F0648BFADB23160F6
:101FEC00D90744BF43F0200323601DB11023ADE794
:101FFC002648E9E7236823F020032360F6E716461A
:10200C00BDE733682568181D616930602E061B68B2
:10201C0001D5196002E06806FBD51980002316462D
:10202C002361BCE7336800211A1D32601E686268A8
:10203C00304600F059F808B1801B6060636823617A
:10204C00002384F84330AAE73246494640462369C8
:10205C00D0470130ADD023689B0713D4E068039BB5
:10206C009842B8BF1846A6E7012332464946404677
:10207C00D04701309DD00135E36803995B1AAB4220
:10208C00F2DCEBE7002504F11906F5E73222000833
:10209C0043220008884210B501EB020402D98442A5
:1020AC00234607D8431EA14208D011F8012B03F890
:1020BC00012FF8E7014602448A4200D110BD13F803
:1020CC00014D02F8014DF7E738B50023054D0446E4
:1020DC0008462B6000F05AF8431C02D12B6803B160
:1020EC00236038BD48020020034610B5C9B2024433
:1020FC009342184601D1002003E0047801338C424E
:10210C00F6D110BD0A44914200F1FF3300D1704763
:10211C0010B511F8014B914203F8014FF9D110BDE4
:10212C002DE9F041074614460D4621B91146BDE88C
:10213C00F041FFF73BBC2AB9FFF7CEFB25462846FA
:10214C00BDE8F08100F01AF88442064602D8B4EBE0
:10215C00500FF4D821463846FFF728FC804608B9C2
:10216C004546ECE7B4422246294628BF3246FFF7E3
:10217C00C9FF29463846FFF7AFFBF1E751F8043C9D
:10218C00181F002BBCBF0B58C0187047044A0549D8
:10219C001368002B08BF0B46184410601846704794
:1021AC005802002060020020F8B500BFF8BC08BC43
:1021BC009E467047F8B500BFF8BC08BC9E467047F9
:1021CC000102000002030405060708090A0B0C0DA6
:1021DC000E0F1010000000000102030400000000AC
:1021EC000000000001020304060708091B5B2564BC
:1021FC004100000048756D69646974793A20256462
:10220C000A0D000054656D70657261747572653AE3
:10221C002025640D00232D302B2000686C4C0065AC
:10222C0066674546470030313233343536373839F6
:10223C004142434445460030313233343536373829
:08224C003961626364656600FC
:08225400B8DEFF7F010000006D
:04225C0085010008F0
:042260005D01000814
:10226400010000001000000000127A00100000209D
:10227400000000001001002078010020E00100208F
:10228400000000000000000000000000000000004A
:10229400000000000000000000000000000000003A
:1022A400000000000000000000000000000000002A
:0C22B4000000000000000000000000001E
:04000005080017F9DF
:00000001FF
